:100000000C9434000C9451000C9451000C94510049
:100010000C9451000C9451000C9451000C9451001C
:100020000C9451000C9451000C9429010C94510033
:100030000C9451000C9451000C9451000C945100FC
:100040000C9451000C9451000C9451000C945100EC
:100050000C9451000C9451000C9451000C945100DC
:100060000C9451000C94510011241FBECFEFD8E026
:10007000DEBFCDBF11E0A0E0B1E0E4EEF6E002C0EB
:1000800005900D92AA38B107D9F711E0AAE8B1E0BE
:1000900001C01D92AF38B107E1F70E9453000C94E4
:1000A00070030C940000CF93DF930E940E030E9414
:1000B000A3010E941A020E948501789480E060E00A
:1000C0000E94090280E091E00E94F8010E94FB0278
:1000D00080E197E220E931E0F9013197F1F70197EA
:1000E000D9F70E94120280E060E00E94090281E1DB
:1000F00091E00E94F80181E060E00E94090280E244
:1001000091E00E94F80180E197E220E931E0F901F5
:100110003197F1F70197D9F70E941202C0E9D1E0B7
:100120000E94730188E592E0FE013197F1F7019793
:10013000D9F70E946101019789309105F0F40E947E
:10014000120280E060E00E9409028FE291E00E94CA
:10015000F80181E060E00E9409028FE391E00E94D3
:10016000F8010E94E90288E99AE3FE013197F1F76C
:100170000197D9F70E941202D3CF489778F480E014
:1001800060E00E9409028DE491E00E94F80181E0A4
:1001900060E00E9409028CE591E00EC080E060E022
:1001A0000E9409028BE691E00E94F80181E060E084
:1001B0000E9409028AE791E00E94F801B1CFFC0198
:1001C000413059F4208181E090E002C0880F991FEE
:1001D0006A95E2F7282B20830895208181E090E042
:1001E00002C0880F991F6A95E2F780958223808369
:1001F0000895FC01413059F4208181E090E002C073
:10020000880F991F6A95E2F7282B20830895208193
:1002100081E090E002C0880F991F6A95E2F780950F
:10022000822380830895FC01808190E002C095952F
:1002300087956A95E2F781700895FC01208181E03D
:1002400090E002C0880F991F6A95E2F72827208363
:1002500008951F920F920FB60F9211242F933F9380
:100260008F939F938091810086FF0CC080918600C0
:100270009091870090938E0180938D0180918100F1
:100280008F7B14C0809186009091870020918D0112
:1002900030918E01821B930B90938B0180938A0186
:1002A00081E080938C018091810080648093810043
:1002B0009F918F913F912F910F900FBE0F901F90A4
:1002C000189580918C01882319F420E030E009C052
:1002D00080918A0190918B0164E770E00E943A035B
:1002E0009B01C901089585E290E061E041E00E9430
:1002F000F90085E38A95F1F785E290E061E040E05E
:100300000E94F90010928C01089584E290E061E06F
:1003100041E00E94DF0084E290E060E040E00E9463
:10032000DF0010928000E1E8F0E0108280818260BE
:100330008083AFE6B0E08C9180628C938081806492
:100340008083789408951092B90088E48093B8006F
:1003500084E08093BC00089584EA8093BC0080917F
:10036000BC0087FFFCCF089584E98093BC0008950A
:100370008093BB0084E88093BC008091BC0087FF21
:10038000FCCF08951F93182F0E94AC018EE40E94A9
:10039000B801812F88600E94B8010E94B4011F91AA
:1003A00008951F93182F84600E94C20185E08A95EA
:1003B000F1F7812F8B7F0E94C20180E991E00197C4
:1003C000F1F71F9108950F931F93182F062F807F29
:1003D000862B0E94D1011295107F812F802B0E94C5
:1003E000D1011F910F91089561E00E94E3010895EA
:1003F000CF93DF93EC0103C021960E94F401888122
:100400008823D1F7DF91CF91089560E00E94E30146
:100410000895882311F080EC01C080E8860F0E94C7
:100420000502089581E00E94050280E49FE10197A2
:10043000F1F708950F931F930E94A30184EF91E0B9
:1004400020E931E0F9013197F1F70197D9F788E315
:100450000E94C20188E30E94D10180E29EE40197DC
:10046000F1F788E30E94C20188E30E94D10108E508
:1004700012E0C8010197F1F788E30E94C20188E306
:100480000E94D101C8010197F1F780E20E940502A4
:1004900088E20E9405028CE00E94050286E00E942C
:1004A000050281E00E94050280EE9EE20197F1F7CD
:1004B0001F910F910895AF92BF92CF92DF92EF926A
:1004C000FF920F931F93CF93DF93A0E0B0E0BC01A6
:1004D000CD0128EE33E040E050E00E941B030E9473
:1004E0004E0379018A01AA24BB246501C0EDD7E03F
:1004F00017C08BE290E067E041E00E94F900CE0176
:100500000197F1F78BE290E067E040E00E94F9008C
:10051000CE010197F1F70894A11CB11CC11CD11C9C
:10052000AE14BF04C006D10620F3DF91CF911F9116
:100530000F91FF90EF90DF90CF90BF90AF90089514
:10054000AF92BF92CF92DF92EF92FF920F931F93E1
:10055000CF93DF93A0E0B0E0BC01CD0120ED37E008
:1005600040E050E00E941B0328EE33E040E050E002
:100570000E944E0379018A01AA24BB246501C8EEBA
:10058000D3E017C08BE290E067E041E00E94F90001
:10059000CE010197F1F78BE290E067E040E00E9426
:1005A000F900CE010197F1F70894A11CB11CC11C00
:1005B000D11CAE14BF04C006D10620F3DF91CF9149
:1005C0001F910F91FF90EF90DF90CF90BF90AF9071
:1005D000089588EC90E00E94A00284EF91E020E969
:1005E00031E0F9013197F1F70197D9F780E991E00E
:1005F0000E945B02089584E690E00E94A0020895A4
:100600008BE290E067E040E00E94F90008958BE201
:1006100090E067E041E00E94F90008958AE290E0EE
:1006200067E041E00E94DF008BE290E067E040E09D
:100630000E94F9000895629FD001739FF001829F8C
:10064000E00DF11D649FE00DF11D929FF00D839F61
:10065000F00D749FF00D659FF00D9927729FB00DFE
:10066000E11DF91F639FB00DE11DF91FBD01CF0111
:1006700011240895AA1BBB1B51E107C0AA1FBB1F71
:10068000A617B70710F0A61BB70B881F991F5A951E
:10069000A9F780959095BC01CD010895A1E21A2E8D
:1006A000AA1BBB1BFD010DC0AA1FBB1FEE1FFF1F16
:1006B000A217B307E407F50720F0A21BB30BE40B66
:1006C000F50B661F771F881F991F1A9469F76095AD
:1006D0007095809590959B01AC01BD01CF01089567
:0406E000F894FFCFBC
:1006E4002053595354454D20424F4F542E2E2E2003
:1006F40000202020524541445920544F20202000FE
:1007040020202020205343414E2020202020002060
:100714002A2044494E4720444F4E47202A20002097
:10072400504C454153452057414954200020204412
:1007340045544543544544212020200020576176E8
:100744006520746F2052696E672000202020534377
:10075400414E4E494E4720202000202020202020BA
:0A076400202020202020202000008B
:00000001FF
