:100000000C9434000C9451000C9451000C94510049
:100010000C9451000C9451000C9451000C9451001C
:100020000C9451000C9451000C9428010C94510034
:100030000C9451000C9451000C9451000C945100FC
:100040000C9451000C9451000C9451000C945100EC
:100050000C9451000C9451000C9451000C945100DC
:100060000C9451000C94510011241FBECFEFD8E026
:10007000DEBFCDBF11E0A0E0B1E0E6E6F5E002C0F2
:1000800005900D92AA38B107D9F711E0AAE8B1E0BE
:1000900001C01D92AF38B107E1F70E9453000C94E4
:1000A000B1020C940000CF93DF930E9490020E9453
:1000B000A2010E9419020E94840180E060E00E9477
:1000C000080280E091E00E94F7010E947A0280E13C
:1000D00097E220E931E0F9013197F1F70197D9F77B
:1000E0000E94110280E060E00E94080281E191E03C
:1000F0000E94F70181E060E00E94080280E291E046
:100100000E94F70180E197E220E931E0F90131979F
:10011000F1F70197D9F70E941102C0E9D1E00E94DE
:10012000720188E592E0FE013197F1F70197D9F766
:100130000E946001019789309105F0F40E9411023C
:1001400080E060E00E9408028FE291E00E94F701E7
:1001500081E060E00E9408028FE391E00E94F701D5
:100160000E94460288E99AE3FE013197F1F7019770
:10017000D9F70E941102D3CF489778F480E060E06D
:100180000E9408028DE491E00E94F70181E060E0A6
:100190000E9408028CE591E00EC080E060E00E94C1
:1001A00008028BE691E00E94F70181E060E00E9486
:1001B00008028AE791E00E94F701B1CFFC014130CB
:1001C00059F4208181E090E002C0880F991F6A9560
:1001D000E2F7282B20830895208181E090E002C07F
:1001E000880F991F6A95E2F780958223808308958E
:1001F000FC01413059F4208181E090E002C0880F79
:10020000991F6A95E2F7282B20830895208181E0C9
:1002100090E002C0880F991F6A95E2F780958223CB
:1002200080830895FC01808190E002C095958795B8
:100230006A95E2F781700895FC01208181E090E0E9
:1002400002C0880F991F6A95E2F728272083089536
:100250001F920F920FB60F9211242F933F938F93FB
:100260009F938091810086FF0CC0809186009091C1
:10027000870090938E0180938D01809181008F7B08
:1002800014C0809186009091870020918D0130915B
:100290008E01821B930B90938B0180938A0181E0E6
:1002A00080938C01809181008064809381009F9174
:1002B0008F913F912F910F900FBE0F901F90189527
:1002C00080918C01882319F420E030E009C08091EE
:1002D0008A0190918B0164E770E00E949D029B016E
:1002E000C901089585E290E061E041E00E94F800D4
:1002F00085E38A95F1F785E290E061E040E00E94B5
:10030000F80010928C01089584E290E061E041E0F1
:100310000E94DE0084E290E060E040E00E94DE00A7
:1003200010928000E1E8F0E010828081826080839A
:10033000AFE6B0E08C9180628C9380818064808392
:10034000789408951092B90088E48093B80084E00E
:100350008093BC00089584EA8093BC008091BC0027
:1003600087FFFCCF089584E98093BC0008958093B3
:10037000BB0084E88093BC008091BC0087FFFCCF69
:1003800008951F93182F0E94AB018EE40E94B701BD
:10039000812F88600E94B7010E94B3011F910895C8
:1003A0001F93182F84600E94C10185E08A95F1F7A0
:1003B000812F8B7F0E94C10188EC90E00197F1F7BB
:1003C0001F9108950F931F93182F062F807F862B60
:1003D0000E94D0011295107F812F802B0E94D001A6
:1003E0001F910F91089561E00E94E2010895CF935B
:1003F000DF93EC0103C021960E94F30188818823DA
:10040000D1F7DF91CF91089560E00E94E201089555
:10041000882311F080EC01C080E8860F0E9404025E
:10042000089581E00E94040280E49FE10197F1F7C2
:1004300008950E94A20184EF91E020E931E0F901E2
:100440003197F1F70197D9F782E00E94040288E220
:100450000E9404028CE00E94040286E00E940402D2
:1004600081E00E94040280E49FE10197F1F7089582
:100470008BE290E067E040E00E94F80008958BE294
:1004800090E067E041E00E94F80008958BE290E080
:1004900067E041E00E94F80080ED97E020E931E05C
:1004A000F9013197F1F70197D9F78BE290E067E016
:1004B00040E00E94F80088EE93E020E931E0F90185
:1004C0003197F1F70197D9F78BE290E067E041E0CF
:1004D0000E94F80080EA9FE020E931E0F9013197BD
:1004E000F1F70197D9F78BE290E067E040E00E94D6
:1004F000F80008958BE290E067E041E00E94F80088
:1005000084EF91E020E931E0F9013197F1F70197AB
:10051000D9F78BE290E067E040E00E94F800089590
:100520008AE290E067E041E00E94DE008BE290E02A
:1005300067E040E00E94F8000895AA1BBB1B51E150
:1005400007C0AA1FBB1FA617B70710F0A61BB70B43
:10055000881F991F5A95A9F780959095BC01CD01E8
:060560000895F894FFCF9E
:100566002053595354454D20424F4F542E2E2E2082
:1005760000202020524541445920544F202020007D
:1005860020202020205343414E20202020200020E0
:100596002A2044494E4720444F4E47202A20002017
:1005A600504C454153452057414954200020204492
:1005B6004554454354454421202020002057617668
:1005C6006520746F2052696E6720002020205343F7
:1005D600414E4E494E47202020002020202020203A
:0A05E600202020202020202000000B
:00000001FF
